:020000040800F2
:10000000E8F90120E1010008D74400088144000814
:10001000D5440008891800085B5E00080000000055
:10002000000000000000000000000000174500086C
:100030002119000800000000E544000819450008E7
:10004000FB010008FB010008FB010008FB010008A0
:10005000FB010008FB010008FB010008FB01000890
:10006000FB010008FB010008FB010008FB01000880
:10007000FB010008FB010008FB010008FB01000870
:10008000FB010008FB010008FB010008FB01000860
:10009000FB010008FB010008FB010008251900080E
:1000A000FB010008FB010008FB010008FB01000840
:1000B000FB010008FB010008FB010008FB01000830
:1000C000FB010008FB010008FB010008FB01000820
:1000D000FB010008FB010008FB010008FB01000810
:1000E000FB010008FB010008FB010008FB01000800
:1000F000FB010008FB010008FB010008FB010008F0
:10010000FB010008FB010008FB010008FB010008DF
:10011000FB010008FB010008FB010008FB010008CF
:10012000FB010008FB010008FB010008FB010008BF
:10013000FB0100080000000000000000FB010008B7
:10014000FB010008FB010008FB010008D94400087E
:10015000FB010008FB010008FB010008FB0100088F
:10016000FB010008FB010008FB010008FB0100087F
:10017000FB010008FB010008FB0100080000000073
:1001800000000000FB01000800000000000000006B
:10019000FB0100080000000000000000FB01000857
:1001A000000000000000000000000000FB0100084B
:1001B000FB010008FB010008FB010008FB0100082F
:1001C000FB010008DFF814D000F0D8FC00F0F6F8CE
:1001D000004800471DC6000800F095FBE8F9012023
:1001E0000648804706480047FEE7FEE7FEE7FEE7D1
:1001F000FEE7FEE7FEE7FEE7FEE7FEE70146000852
:10020000C501000840EA01039B0703D009E008C9C3
:10021000121F08C0042AFAD203E011F8013B00F8CB
:10022000013B521EF9D2704710B5431A934209D2CE
:100230008318881803E010F8011D03F8011D521EF1
:10024000F9D210BD40EA01039B0703D009E008C9B9
:10025000121F08C0042AFAD203E011F8013B00F88B
:10026000013B521EF9D210BDD2B201E000F8012BC1
:10027000491EFBD270470022F6E710B513460A4626
:1002800004461946FFF7F0FF204610BD421E12F843
:10029000013F002BFBD111F8013B02F8013B002B81
:1002A000F9D1704730B505462A460B4612F8010BC6
:1002B00013F8014B08B1A042F8D01CB1002802D0BD
:1002C0006D1CF1E7284630BD421C10F8011B0029C7
:1002D000FBD1801A704730B504460020034600E089
:1002E0005B1C934203D2E05CCD5C401BF8D030BD78
:1002F000034611F8012B00F8012B002AF9D118460A
:100300007047000070B50F4D00B92868002412E056
:100310000A4602E09E4203D0521C1378002BF9D10A
:10032000DAB2224305D02BB124B1002100F8011B21
:1003300004E00446401C0678002EE9D128602046DF
:1003400070BD0000C40400202DE9F05F93460F4605
:100350008046044600260AF035FCD0F8009082461C
:1003600014F8015B2DB100F035FA0068405DC0075C
:10037000F6D12B2D02D02D2D1AD0641E0021CAF8E3
:1003800000105A463946204600F05EFA014627B171
:100390003868A04201D1C7F80080DAF800000228CE
:1003A00009D0CAF80090700505D54842BDE8F09F15
:1003B00046F48066E2E70846F8E7000070B5054CB1
:1003C000054D03E0206820448047241DAC42F9D14C
:1003D00070BD000008EE00082CEE00082DE9F04189
:1003E000074615460E4610200CF05CFA04000AD0B1
:1003F0006760C4E9026500F077FA01682160046073
:100400000020BDE8F0810120FBE72DE9FE4F80468A
:1004100081EA0300C00F0C46009021F0004123F058
:100420000045B8EB0200A94105D24046214690465E
:100430001C460B46024623F00040104347D0270DD0
:10044000C7F30A00C3F30A510290401A01904028F2
:100450006BDAC3F3130040F4801B0098924620B17E
:100460000023D2EB030A63EB0B0B01985946C0F152
:100470004002504600F07CF906460D46504659466B
:10048000019A00F094F910EB08006141002487EA1A
:10049000115284EAE7731A4340D0009A62B3019A7A
:1004A000012A4FEA075215DC001B61EB02014FF0F5
:1004B000004202EA0752CDE90042001C41F58011DA
:1004C00032462B4600F04FFA03B0BDE8F08F4046AD
:1004D0002146F9E7001B61EB0201001C41F5801386
:1004E00000185B412018A2F5001747EB030140EA12
:1004F000D570B6196D4111E06D084FEA360645EA30
:10050000C0754FEA0752001B61EB0201001C41F568
:10051000801149084FEA30000019514132462B46FC
:1005200003B0BDE8F04F00F00FBA00980122400080
:100530000023D0EB020263EBE073009821464FEA00
:10054000E074B8EB000061EB0401E9E783F00043DD
:100550005BE781F0004158E72DE9FE4F81EA030493
:1005600004F0004421F0004100944FF0000B23F010
:10057000004350EA01045ED052EA03045BD0C3F3A7
:100580000A54C1F30A552C44A4F2F3340194A0FB9D
:100590000254C1F3130141F48011C3F3130343F474
:1005A000801301FB024400FB034E840A970A44EACD
:1005B000815447EA8357A4FB076802958D0A05FB1F
:1005C00007854FEA932C04FB0C542705029D4FEA44
:1005D000065847EA1637B5EB08056EEB070C870E91
:1005E000920E47EA811742EA8312A7FB0201B6EB9B
:1005F0000B0164EB00042B0D43EA0C335E1844EB53
:100600001C50DA465146E7FB0201C5F313044FEADA
:100610000B3343EA14534FEA0432019C43EA0603C6
:10062000A4F10C040294009CCDE900B400F09BF905
:1006300003B0BDE8F08F00200146F9E7C1F30A528C
:1006400010B5C1F3130140F2FF3341F480119A4217
:1006500001DA002010BD40F233439A42A2F2334245
:1006600003DC524200F093F810BD904010BD000032
:1006700030B5041E71F1000404DB4FF00044404229
:1006800064EB0101141E73F1000405DB1C464FF0FE
:100690000043524263EB04038B4208BF824230BDE9
:1006A00030B5041E71F1000404DB4FF000444042F9
:1006B00064EB0101141E73F1000405DB1C464FF0CE
:1006C0000043524263EB0403994208BF904230BD9D
:1006D00000F01EBA10B50AF079FABDE810400AF031
:1006E000AFB930B50B46014600202022012409E0B5
:1006F00021FA02F59D4205D303FA02F5491B04FADB
:1007000002F52844151EA2F10102F1DC30BD2DE9ED
:10071000F05F0546002092469B4688460646814685
:1007200040241BE0284641464746224600F02FF869
:1007300053465A46C01A914110D3114618462246D4
:1007400000F016F82D1A67EB01084F4622460120EB
:10075000002100F00DF817EB00094E41201EA4F116
:100760000104DFDC484631462A464346BDE8F09F97
:10077000202A04DB203A00FA02F100207047914061
:10078000C2F1200320FA03F3194390407047202A56
:1007900004DB203A21FA02F00021704721FA02F32B
:1007A000D040C2F120029140084319467047202AE8
:1007B00006DBCB17203A41FA02F043EAE07306E089
:1007C00041FA02F3D040C2F1200291400843194699
:1007D00070470000004870472CEA000810B5044636
:1007E000FFF7F8FF0068005D00F0010010BD024651
:1007F000C9B200E0401C0378002BFBD102E0037873
:100800008B4203D0401E9042F9D200207047000076
:100810000FB400B58DB010A909900B9000914FF066
:10082000FF300A9000200C9005480690054807907C
:100830006A4609A80F9900F053FD0DB05DF814FB4E
:10084000FD1200081B1300082DE9F05F82460078B6
:10085000002715468B460AF10104B946302801D01D
:100860009DB113E014F8010B0127782803D0582814
:1008700001D045B10AE00DB1102D07D10027102598
:1008800014F8010B02E0082500E00A250026B04616
:100890000EE005FB080005FB06F1012701EB104601
:1008A0001FFA80F8B6F5803F00D3B94614F8010B63
:1008B000294600F0A4F90028EBDABBF1000F05D0BF
:1008C0000FB1641E00E05446CBF80040B9F1000FB0
:1008D00006D00AF077F902210160C81EBDE8F09F3A
:1008E00048EA0640FAE7000000487047000500208B
:1008F000034870470248001D011F8860001D7047B3
:100900000405002070472DE9F0410646FFF7ECFF93
:100910008046454613E016B1E068B0420ED120682B
:100920002860D4E90101D8F80070884720460BF010
:10093000E9FCD8F80000B842EBD100E025462C686D
:10094000002CE8D1BDE8F08110B5141E73F100044D
:1009500008DA401C41F1000192185B411A4301D1B1
:1009600020F0010010BD2DE9F04D92469B4611B1DB
:10097000B1FA81F202E0B0FA80F220329046FFF73D
:10098000F7FE04460F4640EA0A0041EA0B015346CF
:100990005A46084313D0114653EA010019D0C8F152
:1009A00040025046FFF7F3FE05460E4650465946B4
:1009B0004246FFF7DDFE084305D0012004E0204653
:1009C0003946BDE8F08D0020054346EAE0762C4329
:1009D00037430A986305E40AA0EB08000022FD0AE9
:1009E00044EA47540A3002D500200146E9E70105F0
:1009F00010196941DDE9084500196941BDE8F04D6C
:100A0000A2E72DE9F04D81EA030404F0004B21F048
:100A1000004514464FF0000A23F0004150EA050259
:100A200020D054EA01021DD0C5F30A570246C5F38F
:100A30001303C1F31300C1F30A5640F4801543F4C5
:100A40008013A7EB0608101BD64608F2FD3873EB9F
:100A5000050002D308F1010801E092185B41B8F1EA
:100A6000000F03DA00200146BDE8F08D00204FF4AE
:100A70008011064684460EE0171B73EB050705D36D
:100A8000121B63EB050306434CEA010C49084FEACD
:100A9000300092185B4150EA0107EDD152EA0300A1
:100AA00012D082EA040083EA0501084305D0101B36
:100AB000AB4106D20122002306E000224FF00043A2
:100AC00002E06FF0010253101AEB06004CEB0851E4
:100AD00010EB0A0041EB0B01BDE8F04DFFF734BF0E
:100AE000C1F30A52C1F3130140F2FF3341F4801104
:100AF0009A4202DA00200146704740F233439A429C
:100B0000A2F2334202DC5242FFF741BEFFF730BE91
:100B100010B500F00EF8016919B100220261884792
:100B200001E080688047AFF30080000010B5AFF3AC
:100B3000008070B5FFF7DEFE04680546A4B92020EA
:100B40000BF0B0FE040011D0094900202C60C4E96C
:100B500000010849A1602073206160610649A0611D
:100B600009B100F03BFCE061204670BDAFF30080AE
:100B7000000000002D0B000800000000064C074D8F
:100B800006E0E06840F0010394E80700984710345D
:100B9000AC42F6D3FFF71AFBE8ED000808EE0008B8
:100BA00010B5441A0346944209D28418114403E054
:100BB00011F8013D04F8013D521EF9D210BD40EA82
:100BC0000104A40703D009E010C9121F10C3042AAE
:100BD000FAD203E011F8014B03F8014B521EF9D28F
:100BE00010BD10B5002200E0521C835C8C5CA34257
:100BF00001D1002BF8D1D8B2E1B2401A10BD3A2889
:100C000000D2303820F02002412A01D3A2F137006F
:100C1000884201D34FF0FF3070472DE9FF4F1C464B
:100C200081B00021D4E9016791464FF0FF358A4633
:100C30008846A1696D1C02988847216A83468847C7
:100C40000028F6D1BBF1FF3F0CD026F4C066002F80
:100C50001ADD700615D5BBF12B0F0AD0BBF12D0F95
:100C60000FD104E04FF0FF3005B0BDE8F08F46F43F
:100C70008066A1696D1C029888477F1E8346002FFD
:100C800002DDBBF1300F03D0B9F1000F2AD025E00F
:100C9000A1696D1C46F400767F1E02988847834642
:100CA000002F05DDBBF1780F06D0BBF1580F03D044
:100CB000B9F1000F10D011E0B9F1000F02D0B9F175
:100CC000100F0BD1A1696D1C26F400767F1E0298CF
:100CD00088478346102000E0082081464FEAE970EB
:100CE000009017E00A20F8E74346AAFB092803FB17
:100CF0000980DDF800C07F1E0AFB0C0112EB0B0A15
:100D000041EBEB78A16946F4007605F10105029804
:100D100088478346002F06DD49465846FFF76FFF98
:100D20005FEA000BE0D5E16902988847B00502D47C
:100D30006FF0010098E7F00718D1700610D5700524
:100D4000514605D50023D1EB030163EB080200E017
:100D500042462068031D23600068C0E9001205E0D8
:100D60002068011D21600068C0E900A828467BE7D3
:100D70002DE9FF5F1D464FF0FF3BD5E90146914647
:100D80005F464FF00008A9697F1C01988847296ACF
:100D9000824688470028F6D1BAF1FF3F0CD024F4F0
:100DA000C064002E19DD600614D5BAF12B0F09D0EE
:100DB000BAF12D0F0ED103E0584604B0BDE8F09F04
:100DC00044F48064A9697F1C01988847761E824696
:100DD000002E02DDBAF1300F03D0B9F1000F26D09A
:100DE00032E0A969761E44F400747F1C019888479C
:100DF0008246002E05DDBAF1780F06D0BAF1580F01
:100E000003D0B9F1000F10D01EE0B9F1000F02D0ED
:100E1000B9F1100F18D1A969761E24F400747F1C53
:100E2000019888478246102002E0082000E00A204E
:100E3000814609E008FB0908A969761E44F400749C
:100E40007F1C019888478246002E05DD49465046A2
:100E5000FFF7D5FE0028EDDAE96901988847A0057B
:100E600002D46FF00100A8E7E00725D1600613D592
:100E7000600502D5C8F1000000E0404629680A1D5F
:100E80002A600968220501D5087015E0220701D5FE
:100E9000088011E008600FE02868011D29600068E3
:100EA000210502D580F8008006E0210702D5A0F8D0
:100EB000008001E0C0F8008038467EE72DE9FF5F42
:100EC000D2E901A74FF00008916999461446DDF870
:100ED00038B0464601988847054659EA0B0005D0C8
:100EE00009E0A169761C019888470546216A2846D1
:100EF00088470028F5D1681C03D05FEACA7005D086
:100F000015E04FF0FF3004B0BDE8F09F2068011DF0
:100F10002160D0F800800AE05FEACA7001D108F8C9
:100F2000015BA169761C7F1E019888470546002F4A
:100F30001ADD681C18D0B9F1000F0DD0E81705EBC9
:100F4000D060421120F01F0059F822102A1A012007
:100F500090400142E0D107E0BBF1000FDCD1216AF3
:100F6000284688470028D7D0E16901988847BBF117
:100F7000000F07D1002E05DD5FEACA7002D1002103
:100F800088F80010A068B84203DDBBF1000F03D061
:100F900017B16FF00100B6E73046B4E72DE9FF4F17
:100FA000087881B09946FF2805D0491C2D2804D027
:100FB0000024002308E000230BE00124F9E703EB01
:100FC000830300EB4303491C0878FF28F7D104B1E1
:100FD0005B4200200090147801462D2C01D02B2C70
:100FE00004D1521C2D2C12D0002400940025167818
:100FF000FF2E0ED00A24A0FB04C801FB04810027A9
:1010000000FB0711521C16EB0C006941EFE70124AD
:10101000EBE7994450EA01020ED00024AA4D26467F
:10102000DFF8A88200F08EFB82468B46B9F1000003
:1010300009DAC9F100071BE001980021C0E900119D
:1010400005B0BDE8F08F074612E0F80707D022464A
:101050002B4630464146FFF77FFA06468846224631
:101060002B4610461946FFF777FA04460D467F10C7
:10107000002FEAD1B9F1000F324643465046594697
:1010800002DAFFF7BEFC01E0FFF766FA009A0AB148
:1010900081F00041019AC2E90001D1E72DE9FF4F3B
:1010A0001F468DB0D7E901464FF0FF382E20454648
:1010B0004FF000090B90B9696D1C0E988847396A8A
:1010C000824688470028F6D1BAF1FF3F0AD024F4BF
:1010D000D064002E11DDBAF12B0F08D0BAF12D0F1C
:1010E0000BD102E0404611B0ABE744F48064B9692B
:1010F0006D1C0E9888478246761E6946600501D5AC
:101100002D2000E02B208DF8000001F1010B0DF1E6
:10111000200809E0B9696D1C0E98884782460F982F
:1011200044F40074761E0560002E02DDBAF1300F23
:10113000F0D00B998A453ED144F0800406E00F9927
:10114000681CA9F1010944F400740860B9696D1CB8
:10115000761E0E98884782463028F0D02BE00B99F7
:101160008A4505D1200603D444F08004761E18E099
:1011700050460AF0D1FC08B30DF11301761E44F479
:1011800000748B4508D2AAF130000BF8010B200641
:1011900007D5A9F1010003E0200602D409F10100FE
:1011A0008146A00502D50F99681C0860B9696D1CBD
:1011B0000E9888478246002ED1DC53E0002E51DD88
:1011C000BAF1650F02D0BAF1450F4BD1A00549D550
:1011D000B9696D1C24F44074761E0E9888478246C7
:1011E000002E0CDD2B2804D0BAF12D0F07D144F4CA
:1011F0008074B9696D1C0E9888478246761EE0059A
:1012000001D52D2100E02B2108F8011BCDF82C8001
:1012100021E00DF12901761E44F4007488450CD2BA
:10122000AAF1300010F0FF0088F8000002D10B99FD
:10123000884509D908F1010806E0E00501D52448F0
:1012400001E042F20F708146B9696D1C0E98884723
:1012500082460F980560002E04DD50460AF05CFCC3
:101260000028D6D1F9690E988847FF208BF8000036
:1012700088F800000020069007904B466A4608A9AF
:1012800006A8FFF78BFEA00502D46FF001002AE745
:1012900014F0240F0AD0E00714D1DDE906123868F3
:1012A000031D3B600068C0E900120BE0DDE90601A8
:1012B00000F054FA0146E00704D13868021D3A6094
:1012C0000068016028460EE7000024400000F03F5F
:1012D000F1D8FFFF02681144137801601846704787
:1012E000D160044951610449116200211161114624
:1012F00000F092B8D5120008DD070008426842B13C
:10130000016811F8013B23B1521EC0E900121846D2
:1013100070470121C160881E704742685AB1C36896
:10132000016843B983688B4205D0491E521CC0E94D
:101330000012002070474FF0FF30704770470EB525
:10134000C10F80EAE0700844CA07002140F233432D
:101350008DE80E000A460B46FFF705FB03B000BD03
:101360000EB540F2334102910021CDE900110A4649
:101370000B46FFF7F8FA03B000BD70B5C1F30A528F
:1013800001F000450024C1F3130140F2FF3341F4A2
:1013900080119A4201DA002070BD40F233439A4234
:1013A000A2F2334203DC5242FFF7F1F900E0904031
:1013B0002C43F1D0404270BD00DE2DE9F0411746CC
:1013C0000E46054633B107FB0354E41B2046B047E5
:1013D000A542FAD1A5F10800BDE8F08110B588203A
:1013E0000BF060FA002801D00021017010BD8029A7
:1013F00002D808B1017809B100207047012100F836
:10140000081B704718B100F10802914201D000207A
:1014100070470021017070472DE9F34F8BB04FF0FA
:10142000000801F10C000C464FF0010B46460DF18F
:10143000080A01906269012101989047051E2DD08C
:10144000252D2CD0216A8847C0B1626901210198FD
:101450009047216A88470028F7D1411E62690198A8
:10146000904700E0761CA1690B988847216A88475D
:101470000028F7D1E1690B988847DBE7A1690B9851
:1014800088470746A84201D1761CD3E7E1690B984B
:1014900088477F1C02D1B8F1000F6FD046E10027CA
:1014A00062693D463946019890472A2804D162690D
:1014B0000121019890470125DFF88492626901219A
:1014C00001989047A0F130010A290AD24F45E5DC86
:1014D00007EB870100EB4107303FDFD445F01005F3
:1014E000ECE7E90601D46FF000476C280AD04C28DD
:1014F00014D0682815D06A280DD074281CD07A28FA
:101500001AD01DE062690121019890476C2802D031
:1015100045F0040514E045F002050DE045F0200516
:101520000AE06269012101989047682802D045F0DD
:10153000080505E045F400656269012101989047BE
:10154000C4E9015765283DD019DC58287AD00CDC55
:10155000452837D004DC252826D0412831D131E078
:1015600046282FD047282CD12CE05B2877D0612843
:1015700028D063287CD0642823D15AE0D0E06F289B
:1015800048D008DC66281DD067281BD0692821D0E8
:101590006E2816D127E0702845D0732868D07528AA
:1015A00047D078280DD14DE0A1690B9888470546B2
:1015B00025283FF469AFE1690B9888476D1C3FF41B
:1015C0006AAFB3E023466A466FF001000B99FFF75C
:1015D00065FD9EE045F040006060A80723464FF09F
:1015E000000236D43EE0E8077FF447AF2068011DD3
:1015F00021600068290501D506701BE7290701D580
:10160000068017E7A90703D5F117C0E9006111E7C4
:1016100006600FE745F040006060A80723464FF0E2
:10162000080216D41EE040F60E0125EA01006060B3
:1016300016E045F040006060A80723464FF00A021C
:1016400007D40FE045F040006060A80708D52346A6
:1016500010226FF001000B99FFF7DFFA59E007E065
:10166000234610226FF001000B99FFF781FB50E039
:101670004FF000094F464B46632802D05B2806D046
:1016800040E0E80601D40120A06001273AE0626949
:101690000121019890475E2805D14FF00109626948
:1016A000494601989047216939B900210A465346B5
:1016B00043F82120491C0829FADBB0B3216969B934
:1016C000C11700EBD16253110AEB830122F01F0214
:1016D000821A01200B68904003430B60626901216C
:1016E000019890475D28E8D1B9F1000F09D000209A
:1016F000514651F82020D24341F82020401C0828B0
:10170000F7DB02AB224600976FF001000B99FFF761
:10171000D5FB00280CDA401C08D1BBF1000F05D026
:101720004FF0FF300DB0BDE8F08FFFE74046F9E71E
:10173000E90701D108F1010806444FF0000B79E6F2
:10174000CCCCCC0C0EB540F2334202920022CDE953
:1017500000221346FFF707F903B000BD01F0004374
:1017600030B421F0004150EA010206D00A0DA2F582
:101770006072C1F31301002A02DC30BC0020704704
:10178000440F44EAC104C100E01830BC00EBC25071
:10179000AFF300800029A8BF7047401C490008BF74
:1017A00020F00100704710B4B0FA80FC00FA0CF091
:1017B00050EA010404BF10BC704749B1CCF12004C9
:1017C00021FA04F411FA0CF118BF01212143084356
:1017D000A3EB0C01CB1D4FEA00614FEA102042BF82
:1017E000002010BC704700EBC35010440029A4BF78
:1017F00010BC7047401C490008BF20F0010010BC1D
:1018000070472DE9F04116461F460C46851B02E045
:101810002846B847AD1B641EFAD2BDE8F08170B50A
:101820008C1810F8015B15F0070301D110F8013B8B
:101830002A1106D110F8012B03E010F8016B01F812
:10184000016B5B1EF9D12B0705D40023521E0DD46A
:1018500001F8013BFAE710F8013BCB1A921C03E0B8
:1018600013F8015B01F8015B521EF9D5A142D8D3F0
:10187000002070BD38B504466846AFF300800146CD
:1018800020460CF073FC38BDFEE7002070470020B6
:101890007047000010B500220449054803F01DF808
:1018A0000449034803F013F8002010BD4C0B00203E
:1018B000280500204C07002070B50C460A68054634
:1018C00001460A48FFF76CF9214608480BF066F814
:1018D00028462168FEF7CFFC2946054802F0F7FFAD
:1018E000034802F0D4FF002070BD00004C07002028
:1018F000280500200A46094910B5D1F81812D1F878
:10190000141200291CBF012010BD0146034802F03B
:10191000E4FFBDE81040014803F024B8280500208A
:101920007047000070B5202000F080FA4FF48070FE
:1019300000F07CFA4FF4007000F078FA104E20218D
:10194000304600F095FB01280CBF012500254FF41F
:101950000071304600F08CFB00280CBF01240024ED
:101960004FF48071304600F083FB00280CBF01204B
:1019700000202A462146BDE870400AF0C9BF000099
:101980000004024030B482B04FF0000CCDF804C027
:1019900090F83C20012A01BF022002B030BC704701
:1019A000012280F83C200A6807230468092A14D918
:1019B000E5680A3A02EB420203FA02F225EA020261
:1019C000E2600B788A680A3B03EB430302FA03F3F5
:1019D0000268D4682343D36011E0256902EB420218
:1019E00003FA02F225EA020222610B788A6803EB0D
:1019F000430302FA03F302681469234313614A683C
:101A00001F23072A16D20468656B521E02EB82025E
:101A100003FA02F225EA020262630B790A885B1E6E
:101A200092B203EB830302FA03F30268546B23437D
:101A300053632DE004680D2A15D2256BD21F02EBEB
:101A4000820203FA02F225EA020222630B790A8873
:101A5000DB1F92B203EB830302FA03F30268146BF9
:101A60002343136314E0E56A0D3A02EB820203FAA2
:101A700002F225EA0202E2620B790A880D3B92B279
:101A800003EB830302FA03F30268D46A2343D362AD
:101A9000264B0468244A9C4204BF0C68122C03D1D4
:101AA000546844F48004546004689C4230D1204C53
:101AB0000B68A34218BF112B2AD1536843F40003CB
:101AC00053600968A14223D11A491B4A0968B1FB36
:101AD000F2F101EB810149000191009118D0B1F1BF
:101AE000004F1BD20029D8BF002105DD11F00101F4
:101AF00002D0019A521E0192009A491C521C914236
:101B000006DA019B891C5B1E5B1E01939142F8DB88
:101B100080F83CC002B0002030BC70470199491EDB
:101B20000191FCD1F4E700000023014000200140B6
:101B3000120000100000002040420F0070B50400A9
:101B40004FF0000504BF012070BD206C002628B9AD
:101B5000666484F83C60204600F0ACF8206C10F01D
:101B6000100F18BF012503D084F83C60284670BDD3
:101B7000206C20F4885040F0020020644B484168FB
:101B800021F440314160416862681143416020683E
:101B9000416821F48071416020684168226941EA0E
:101BA000022141602068416821F040714160206855
:101BB0004168A268114341602068816821F4006196
:101BC000816020688168E26811438160A06A6FF0DB
:101BD0007061C8422068816821F07061816020686E
:101BE000816808BF21F040510BD0A26A1143816087
:101BF0002068816821F04051816020688168E26A34
:101C0000114381602068816821F0020181602068B1
:101C10008168A26941EA42018160206A0028206847
:101C2000416808BF21F4006113D041F400614160B4
:101C30002068416821F460414160206841684FF4A8
:101C40006043626A93FAA3F3B3FA83F3521E9A4095
:101C5000114341602068C16A21F47001C1622068AB
:101C6000C16AA28B124B03EB02521143C16220687E
:101C7000816821F40071816020688168226B41EAEB
:101C8000422181602068816821F480618160206840
:101C90008168626941EA822181606664206C20F07B
:101CA000020040F0010020645EE7000000230140D4
:101CB0000000F0FF00B5006887B0A0F18041B1F5E9
:101CC00090311CBF07B000BD00210A48026842F4F1
:101CD00080720260006800F480700590012000901E
:101CE0000320CDE901016946034800F0ABF807B0D5
:101CF00000BD0000443802400000024082B04FF0B6
:101D0000000CCDF804C090F83C10012902BF02205D
:101D100002B07047012180F83C1001688A6812F017
:101D2000010F26D18A6842F001028A603449354A9F
:101D30000968B1FBF2F111EB41010191009118D05A
:101D4000B1F1004F57D20029D8BF002105DD11F0B5
:101D5000010102D0019A521E0192009A491C521CA4
:101D6000914206DA019B891C5B1E5B1E0193914226
:101D7000F8DB01688A6812F0010F39D0026C22F09A
:101D8000010222F4C06242F4807202644A6812F4D2
:101D9000806F05D0026C22F4005242F4805202643B
:101DA000026C12F4805F08BFC0F844C003D0426CDC
:101DB00022F00602426480F83CC0134A6FF022030E
:101DC0000B605168006811F01F0F09D0A0F180412D
:101DD000B1F5903104BF816811F0405F04D007E095
:101DE000816811F0405F03D1816841F080418160DA
:101DF000002002B070470199491E0191FCD1B8E75B
:101E00000000002040420F000023014031B500F0E7
:101E100039F9009C0546B4F1FF3F18BF641C00F07F
:101E200031F9401BA042FAD338BD704704490A6813
:101E3000024208BF704710B50860FFF7F6FF10BDFB
:101E4000143C01402DE9F84F0022844EDFF810E2E7
:101E500001274FF0030A4FF00F0800BF0B6807FA85
:101E600002F42340A34240F0F380D1F804C0BCF157
:101E7000020F18BFBCF1120F15D14FEAD20C00EBC4
:101E80008C05D5F820904FEA427C4FEADC6C08FACA
:101E90000CFB29EA0B09D1F810B00BFA0CFC4CEA48
:101EA000090CC5F820C0D0F800904FEA420C91F818
:101EB00004B00AFA0CF50BF0030B29EA05090BFA3A
:101EC0000CFB4BEA0909C0F80090D1F80490B9F175
:101ED000010F18BFB9F1020F05D0B9F1110F18BFEA
:101EE000B9F1120F18D1D0F80890D1F80CB029EA46
:101EF00005090BFA0CFB4BEA0909C0F80890D0F869
:101F0000049029EA040491F80490C9F3001909FA2D
:101F100002F949EA04044460C46824EA05048D68AF
:101F200005FA0CFC4CEA040CC0F80CC0D1F804C053
:101F30001CF0805F7ED0D6F800C04CF4804CC6F810
:101F400000C0D6F800C00CF4804CCDF800C022F0E0
:101F5000030C0CF1804404F59834D4F808584FEA87
:101F6000827C4FEA1C7C08FA0CF925EA0905A0F1ED
:101F70008049B9F5003930D0A0F18049B9F501396F
:101F800008BF4FF0010928D0A0F18049B9F5023906
:101F900008BF4FF0020920D0A0F18049B9F50339FC
:101FA00008BF4FF0030918D0A0F18049B9F50439F2
:101FB00008BF4FF0040910D0A0F18049B9F50539E8
:101FC00008BF4FF0050908D0A0F18049B9F50639DE
:101FD0000CBF4FF006094FF0070909FA0CFC4CEA58
:101FE000050CC4F808C8DEF800C04C682CEA030CE5
:101FF00014F4803F18BF4CEA030CCEF800C0194C13
:10200000D4F800C04D682CEA030C15F4003F18BF4B
:102010004CEA030CC4F800C0134CD4F800C04D685F
:102020002CEA030C15F4801F18BF4CEA030CC4F80B
:1020300000C000E00CE00D4CD4F800C04D682CEA64
:10204000030C15F4001F18BF4CEA030CC4F800C0C1
:10205000521C102AFFF402AFBDE8F88F443802404A
:10206000003C0140043C0140083C01400C3C014064
:102070000069084018BF01207047002A08BF090402
:102080008161704701480068704700005C000020D3
:1020900002480168491C0160704700005C00002094
:1020A0000B4810B5016841F400710160016841F40A
:1020B00080610160016841F480710160032000F0DB
:1020C00087F8002000F006F800F018F8002010BD96
:1020D000003C024010B5044607484FF47A7200688D
:1020E000B0FBF2F001F02EFF00222146501E00F05E
:1020F0003DF8002010BD00000000002010B50320B6
:1021000000F066F8002211466FF00B0000F02EF888
:10211000002211466FF00A0000F028F80022114654
:102120006FF0090000F022F800221146501F00F065
:102130001DF800221146101F00F018F80022114669
:10214000901E00F013F80022BDE810401146501E0A
:1021500000F00CB800F01F01012202FA01F1400961
:10216000800000F1E020C0F800117047174B10B458
:102170001B68C3F30223C3F1070CBCF1040F88BF33
:102180004FF0040C1C1D072C34BF0023DB1E012460
:1021900004FA0CFCACF1010C0CEA0101994004FAC0
:1021A00003F35B1E1A40114300284FEA0111A1BF3F
:1021B00000F1E02080F8001410BC704700F00F0020
:1021C00000F1E02080F8141D10BC70470CED00E019
:1021D000074900F007000A684FF6FF031A4042EA79
:1021E000002040F0FD7040F0806008607047000003
:1021F0000CED00E001220168C0F8F423002280F811
:10220000EC23886940F000608861486D40F003006D
:1022100040F08050486510467047000070B5174D7B
:102220000446B1B1012918BF70BD2068D0F8001E66
:1022300041F00101C0F8001ED4F8F80302F06FFE6F
:10224000206A002808BF70BD286840F0060028609A
:1022500070BD206A28B102F067F9286820F00600F6
:1022600028602068D0F8001E21F00101C0F8001E8F
:10227000D4F8F803BDE8704002F0DCBD10ED00E0DA
:10228000006841620020704770B400680023D0F8F5
:1022900024C0002904BF4CEA0241816218D0846A3C
:1022A0000CEB144C4C1E002CC8BF4FF4827508DD9B
:1022B00005EB830686595B1CDBB20CEB164C9C428B
:1022C000F6DC4FF4807303EB81014CEA024242508A
:1022D00070BC00207047D0F8F80302F004BDC1EBD9
:1022E000C10200EB8202D0F8F803526C02F06EBC1F
:1022F000C1EBC10200EB8202D0F8F803D2F804224D
:1023000002F0BCBCD0F8F80302F0EFBC10B50446F4
:1023100001F07F03C3EBC3000A4611F0800F04EB0A
:10232000800014BF00F1380100F5FC710B70D0097A
:10233000487094F8B803012804BF022010BD0120A2
:1023400084F8B803206803F0FBF8002084F8B80391
:1023500010BD70B504460A4611F0800F01F07F00F1
:1023600014BFC0EBC001C2EBC20104EB810114BF7A
:10237000383101F5FC7100258D700870D009487066
:1023800094F8B803012804BF022070BD012084F82E
:10239000B803206803F0F6FA84F8B853002070BD43
:1023A00001F00F01C1EBC10100EB8100B0F8100298
:1023B00080B2704770B504468C4611F0800F01F072
:1023C0007F00C0EBC00104EB810114BF383101F57F
:1023D000FC7108705FEADC1C81F801C08A60CB7078
:1023E00018BFC8800025022B08BF0D7194F8B803F0
:1023F000012804BF022070BD012084F8B8032068C2
:1024000002F0DEFF284684F8B85370BD10B58C4644
:1024100001F07F04C4EBC40100EB8101C1F80C3270
:10242000C1F804220023C1F8103281F8F93181F893
:10243000F841036901F5FC71012B08BF0A611CF02A
:102440007F0F027C006803D003F002FB002010BD68
:1024500003F0CEF9FAE770B504460D4611F0800F8F
:1024600001F07F0014BFC0EBC001C5EBC50104EB58
:10247000810114BF383101F5FC7101228A700870A6
:10248000E809487094F8B803012804BF022070BD21
:1024900084F8B823206803F0A8FA15F07F0F05D15F
:1024A000217C04F56F72206803F04DFA002084F857
:1024B000B80370BD10B58C4601F07F04C4EBC401B5
:1024C00000EB8101CB644A6400230B65012381F892
:1024D000393001F8384F0369012B08BF0A611CF03D
:1024E0007F0F027C006803D003F0B2FA002010BD19
:1024F00003F07EF9FAE700002DE9F04F044600688A
:1025000083B00546002603F014FC00281CBF03B06E
:10251000BDE8F08F206803F035FC002804BF03B04D
:10252000BDE8F08F206803F02DFC10F0020F04D0FE
:102530002068416901F002014161206803F022FC3A
:1025400010F4002F4FF0080A4FF0100B5DD02068F8
:1025500003F0FAFB070018BF4FF0010955D000BF88
:1025600017F0010F4DD0F1B2206803F003FC804654
:1025700010F0010F2BD005EB4611C1F8089B206924
:10258000012811D1C6EBC60004EB8000D1F8101B66
:10259000D0F80022C1F31201511AC0F81012D0F87D
:1025A00004121144C0F80412F1B22046FFF7A0FE55
:1025B0002069012802BF002ED4F80C02002806D1A1
:1025C00004F56F724FF00101206803F0BCF918F0B8
:1025D000080F06D0204600F0AAFB05EB4610C0F815
:1025E00008AB18F0100F1CBF05EB4610C0F808BB75
:1025F00018F0200F05D005EB46104FF02001C0F871
:10260000081B06F101067F08AAD1206803F0BAFB77
:1026100010F4802F7CD0206803F08FFB5FEA000964
:102620004FF0000674D000BF19F0010F71D0F1B265
:10263000206803F090FB074610F0010F29D001201D
:10264000D5F8342800FA06F122EA0101C5F8341859
:1026500005EB4611C1F808092069012807D1C6EB2E
:10266000C60004EB8000D0E9102111444164F1B2AE
:102670002046FFF734FE2069012802BF002EE06CDF
:10268000002806D104F56F724FF00101206803F0B5
:102690005AF917F0080F05D005EB46114FF0080066
:1026A000C1F8080917F0100F05D005EB46114FF0DF
:1026B0001000C1F8080917F0400F05D005EB4611CE
:1026C0004FF04000C1F8080917F0020F05D005EBE4
:1026D00046114FF00200C1F8080917F0800F4AD0E8
:1026E00020680190C6EBC60004EB800000F13808BA
:1026F000D8E90501A0EB0107D8F80800874288BF98
:102700000746F81C4FEA900A019800EB461B1DE0B3
:1027100036E030E0471AD8F80800B84238BF07461C
:10272000F81C4FEA900A207C0090BBB2F2B2D8F8B5
:102730000C10019803F070FBD8F80C003844C8F86E
:102740000C00D8F818003844C8F81800DBF818094D
:1027500080B2504584BFD8E90501884201D90028DC
:10276000D8D147B901990120B040D1F8341881433C
:102770000198C0F83418761C5FEA59097FF454AF09
:10278000206803F0FFFA10F0004F11D0D5F80408CC
:1027900020F00100C5F8040894F8EC03012873D078
:1027A000204600F0AAFA2068416901F00041416129
:1027B000206803F0E7FA10F4006F0CD0D5F8080891
:1027C00010F0010F1CBF204600F0CEFA20684169CE
:1027D00001F400614161206803F0D4FA10F0006F49
:1027E0000AD02068416901F00061416194F8EC036E
:1027F000E8B3204600F0B8FA206803F0C3FA10F4FA
:10280000805F74D0D5F8040820F00100C5F80408F2
:102810001021206803F05CFA6068C8B110F0010074
:102820004FF0FF021CBFC5F80829C5F8082B6168E6
:1028300081420DD905EB4011C1F80829C1F8082BD8
:10284000C1F82829C1F8282B6168801C8142F1D881
:102850004FF0FF30C5F81808D5F81C0840F00110FB
:10286000C5F81C08206B28B3D5F8840801E013E0F4
:102870000AE040F00B00C5F88408D5F8440840F0A1
:102880000B00C5F8440821E0002084F8EC03014661
:102890002046FFF7C3FC86E7012084F8EC0320689C
:1028A000406D0121C0F38300C4F8F0032046FFF718
:1028B000B5FCA1E7D5F8140840F02B00C5F81408C2
:1028C000D5F8100840F00B00C5F81008D5F800083E
:1028D00020F4FE60C5F80008217C04F56F722068C2
:1028E00003F031F82068416901F4805141612068AA
:1028F00003F048FA10F4005F38D0206802F0A8FD19
:102900002068C16821F47051C160206803F0F4F9B7
:1029100078B10320E0604020606100F063FE8349ED
:10292000834A014491420FD22068C16841F470513A
:1029300013E00020E0604FF4007060612068C1681F
:1029400041F41051C16009E07A497B4A0144914247
:1029500028D22068C16841F46051C160204600F06F
:10296000BBF92068416901F400514161206803F01E
:1029700009FA10F0100F75D02068816921F010015C
:102980008161D5F8208008F00F00C0EBC00004EB97
:10299000800000F5FC77C8F34340022850D0062899
:1029A00061D06BE0A0F57401644AA1F51051914229
:1029B00004D22068C16841F45051CEE7A0F1837180
:1029C0005F4AA1F5E741914204D22068C16841F411
:1029D0004051C2E75B495C4A0144914204D22068FD
:1029E000C16841F43051B8E75849594A014491420D
:1029F00004D22068C16841F42051AEE75549564AD7
:102A00000144914204D22068C16841F41051A4E706
:102A1000A0F1B771514AA1F55851914204D22068F2
:102A2000C16841F4005198E74D4908444D49884236
:102A30002068C16834BF41F4E05141F4C0518CE7D3
:102A400047F6F07018EA000F18D0C8F30A12904643
:102A50002846F96803F09AF9F8684044F860B869C4
:102A600040440AE00FE0082204F56F71284603F0A5
:102A70008DF9B869C8F30A110844B8612068816902
:102A800041F010018161206803F07CF910F0080F1B
:102A900007D0204600F035F92068416901F00801AF
:102AA0004161206803F06EF910F4801F08D0F1B284
:102AB000204600F059F82068416901F48011416115
:102AC000206803F05FF910F4001F08D0F1B220462F
:102AD00000F04EF82068416901F40011416120685E
:102AE00003F050F910F0804F07D02046FFF7F3FBBA
:102AF0002068416901F080414161206803F042F99A
:102B000010F0040F04BF03B0BDE8F08F20684568E3
:102B100015F0040F1CBF2046FFF7F4FB2068416846
:102B20002943416003B0BDE8F08F0000405327FF08
:102B300000350C00401E1BFF40420F00804F12006A
:102B400020D6130060B6E5FE60E3160000D3CEFE8B
:102B500040771B00C05BB3FEC09121002075380098
:102B6000E05459FEE09C4100D0F8F80302F01CB993
:102B7000D0F8F80302F01AB9002804BF012070470A
:102B80002DE9F04104468AB0032084F8B9032046B9
:102B900000F062F8206802F025FE1034B4E8EF106F
:102BA0008DE8EF1074E80C01CDE9080194E80F00FE
:102BB00002F068FC0021206803F005F900220F21D3
:102BC00001251046C2EBC20304EB8303491E83F8C0
:102BD000395083F83820DA8783F83B00186458644A
:102BE000D86402F10102EDD14FF48273C1EBC1024E
:102BF00004EB820203EB810C82F8F90182F8F811F0
:102C0000D18782F8FB01C2F80002C2F80402C2F8C0
:102C10000C02226842F80C00491C0F29E6D304F18B
:102C2000100090E8CF118DE8CF11D4E90C01CDE967
:102C3000080194E80F0002F011FD84F8B953606AAE
:102C4000012804BF2046FFF7D5FA206802F0FAFCFD
:102C50000AB00020BDE8F08130B5006887B0B0F15F
:102C6000A04F1CBF07B030BD4FF400700024CDE969
:102C70000004164D694628460294FFF7E3F84FF426
:102C8000C05000900220CDE90104032003900A20E7
:102C9000049069462846FFF7D5F80D48016841F0D1
:102CA000800101600B48016841F4804101600068C7
:102CB000002200F48040059011464320FFF756FAA9
:102CC0004320FFF747FA07B030BD00000000024084
:102CD000343802404438024010B50446C06801212F
:102CE000002808BF0021D4F8F80302F0B6F8D4F8A1
:102CF000F803BDE8104002F07EB8D0F8F80302F007
:102D000099B8D0F8F80302F09BB810B5044690F8D3
:102D1000B803012804BF022010BD012084F8B803C5
:102D2000206803F067F8002084F8B80310BDD0F8DD
:102D3000F82300F56F71104602F0A2B810B50446F2
:102D400090F8B803012804BF022010BD012084F8C8
:102D5000B803206802F06AFC206802F0B3FF00208C
:102D600084F8B80310BD000010B50446D0F8F8038D
:102D700002F0D5F82068D0F8001E41F00101C0F83B
:102D8000001E206A002808BF10BD0348016841F0FA
:102D90000601016010BD000010ED00E0F8B5244808
:102DA000016841F0805101600068012600F0805008
:102DB0000090300490FAA0F0B0FA80F0800000F1AA
:102DC000844000F560200660FFF75CF9194D044669
:102DD000686810F4803F09D1FFF754F9001BB0F583
:102DE0007A7F1DD8686810F4803FF5D04FF400302A
:102DF00090FAA0F0B0FA80F0800000F1844000F575
:102E000060200660FFF73EF90446686810F4003F52
:102E10000CD100BFFFF736F9001BB0F57A7F01D95E
:102E20000320F8BD686810F4003FF3D00020F8BD1F
:102E300040380240007000400121080290FAA0F0E2
:102E4000B0FA80F0800000F1844000F5602001605D
:102E5000704700002DE9F84F044600784FF0000B52
:102E6000FF4DDA4610F0010F0AD02868A16B20F060
:102E7000C06008432860A06B002808BF4FF0010B1A
:102E8000207810F0020F0AD02868E16B20F0C050C3
:102E900008432860E06B002808BF4FF0010B207842
:102EA00010F0040F10D02868216B20F44010084364
:102EB0002860206BB0F5801F08BF4FF0010B03D0D6
:102EC000002808BF4FF0010A207810F0080F10D03A
:102ED0002868616B20F4400008432860606BB0F5FF
:102EE000800F08BF4FF0010B03D0002808BF4FF040
:102EF000010A207810F0200F5FD0DA480026016820
:102F000041F0805101600068D74F00F08050009080
:102F1000386840F480703860FFF7B4F8804638684D
:102F200010F4807F0BD100BFFFF7ACF8A0EB0800D6
:102F3000022800F27A82386810F4807FF4D0CB4FF8
:102F4000386810F4407025D0B4F8401001F4407196
:102F500081421FD03868C649012220F440700A60BF
:102F60000E603860386810F0010F13D0FFF78AF850
:102F70000646386810F0020F08BF4CF2503809D1ED
:102F8000FFF780F8801B404500F24F82386810F050
:102F9000020FF5D0216C4FF4407030EA0102B548C1
:102FA0001CBF016821F4F81159D001603868B4F8E9
:102FB0004010C1F30B0108433860207810F0100F67
:102FC00004D0AD4994F85800C1F8E001207810F021
:102FD000800FAA4805D00168E26C21F4400111433A
:102FE0000160217811F0400F05D00168A26C21F03A
:102FF000806111430160218811F4807F0BD001684A
:10300000626D21F0006111430160616DB1F1006FEB
:1030100008BF4FF0010A218811F4007F05D0016834
:10302000626C21F080511143016021884FF44036D9
:1030300011F4806F4FF0706747F6C0784FF0FF399A
:1030400009D00168226D21F0005111430160206D0B
:10305000B0F1005F11D0BBF1000F0ED108E00268A3
:1030600021F4407122F4F81221F0704111439CE7E1
:103070002068B0F5006F40F04481814900208866E7
:10308000FFF700F883467F48006810F0006F0BD010
:10309000FEF7F8FFA0EB0B00022800F2C68179488A
:1030A000006810F0006FF3D12268774812F0010F2A
:1030B0004FF0E04101D0A36B23B112F0020F38D0E2
:1030C000E26BB2BB026896FAA6F302F44032B3FA9E
:1030D00083F3DA40521C0368520097FAA7FC03F00E
:1030E0007063BCFA8CFC23FA0CF3D4E901CB98FA98
:1030F000A8FEBEFA8EFE0BFA0EFB4CEA0B0C96FAFB
:10310000A6FB09EB5202BBFA8BFB02FA0BF297FA11
:10311000A7FBBBFA8BFB03FA0BF31A434CEA020240
:1031200091FAA1FC6369BCFA8CFC03FA0CF31A4314
:103130000260226812F0040F03D0236BB3F5801FE6
:1031400006D012F0080F43D0626BB2F5800F3FD16A
:10315000026896FAA6F302F44032B3FA83F3DA4037
:10316000521C0368520091FAA1FC03F0E043BCFA40
:103170008CFC23FA0CF3D4E901CB98FAA8FEBEFA32
:103180008EFE0BFA0EFB4CEA0B0C96FAA6FB09EB33
:103190005202BBFA8BFB02FA0BF297FAA7FED4F8A5
:1031A00010B0BEFA8EFE0BFA0EFB42EA0B024CEA9E
:1031B000020291FAA1FCBCFA8CFC03FA0CF31A434C
:1031C00002602A68A36A22F01F025B1E1A432A606B
:1031D000228812F4806F3CD0226DB2F1005F38D1AA
:1031E000026896FAA6F302F44032B3FA83F3DA40A7
:1031F000521C5300026891FAA1FC02F0E042BCFAB2
:103200008CFC22FA0CF2D4E901CB98FAA8FEBEFAA3
:103210008EFE0BFA0EFB4CEA0B0CD4F80CB096FAAF
:10322000A6FE09EB5B0BBEFA8EFE0BFA0EFB97FABD
:10323000A7FEBEFA8EFE03FA0EF34BEA03034CEA36
:10324000030391FAA1FCBCFA8CFC02FA0CF21A43BB
:103250000260228812F4006F3CD098FAA8FC15E0B6
:103260008C38024040380240007000407038024004
:10327000400E47420838024000104742943802404E
:10328000000047420038024084380240D4E901324D
:10329000BCFA8CFC02FA0CF21A43E36896FAA6FC1C
:1032A00009EB5303BCFA8CFC03FA0CF397FAA7FB67
:1032B000D4F810C0BBFA8BFB0CFA0BFC43EA0C03EE
:1032C000134391FAA1F16269B1FA81F102FA01F1B5
:1032D000194301605A4901208866FEF7D3FE8346F0
:1032E0005848016811F0006F0BD100BFFEF7CAFE0D
:1032F000A0EB0B0002287DD85248006810F0006F48
:10330000F4D0BAF1000F76D04D4900200867FEF7DF
:10331000B9FEDFF830B18246DBF8000010F0005F44
:103320000BD000BFFEF7AEFEA0EB0A0002287CD84F
:10333000DBF8000010F0005FF4D12168424811F082
:10334000040F01D0226B22B111F0080F2FD0616B56
:1033500069BB016896FAA6F201F44031B2FA82F232
:10336000D140491CD4E90623490098FAA8FCBCFACC
:103370008CFC03FA0CF31A4396FAA6F309EB5101FD
:10338000B3FA83F3994097FAA7FC636ABCFA8CFC02
:1033900003FA0CF31943114301602968E26A6FF0E4
:1033A000FF0321F4F85103EB022211432960218825
:1033B00011F4807F29D0616DB1F1006F25D10168D2
:1033C00097FAA7F201F07061B2FA82F2D140D4E923
:1033D000062398FAA8FCBCFA8CFC03FA0CF31A43F7
:1033E000236A96FAA6FC09EB5303BCFA8CFC03FA99
:1033F0000CF301E019E020E097FAA7FCBCFA8CFC82
:1034000001FA0CF11943114301600D4901200867CD
:10341000FEF738FE0446DBF8000010F0005F0CD128
:10342000FEF730FE001B022802D90320BDE8F88F0A
:10343000DBF8000010F0005FF2D00020BDE8F88F4C
:103440000000474200380240883802402DE9F05F12
:103450005F4F06468946386801F0FF0A00F00F000A
:10346000484506D287F800A0386800F00F004845AC
:1034700040D13078574D10F0020F05D02868B16860
:1034800020F0F00008432860307810F0010F65D07C
:1034900070685149012825D0022818BF03280968FF
:1034A00025D011F0020F65D0296821F0030141EA0F
:1034B00000002860FEF7E6FD0446706841F2883897
:1034C000012818D0022826D00328286833D010F00D
:1034D0000C0F43D0FEF7D6FD001B40453AD9032020
:1034E000BDE8F09F096811F4003FDDD142E011F022
:1034F000007FD9D13EE0286800F00C0004282DD0D0
:10350000FEF7C0FD001B4045E9D8286800F00C001C
:103510000428F5D122E0286800F00C0008281DD00E
:10352000FEF7B0FD001B4045D9D8286800F00C001C
:103530000828F5D112E04FF00C0B3BEA00000DD04B
:10354000FEF7A0FD001B4045C9D828683BEA0000F3
:10355000F6D103E0286810F00C0FBBD1386800F0FA
:103560000F00814509D287F800A0386800F00F00ED
:10357000484502D00120BDE8F09F307810F0040FDC
:1035800005D02868F16820F4E050084328603078BE
:1035900010F0080F06D02868316920F4604040EA36
:1035A000C100286000F024F82968F02292FAA2F203
:1035B00001F0F001B2FA82F2D140084A515CC840F1
:1035C000074908600020FEF785FD0020BDE8F09F58
:1035D000003C0240083802400038024018E600086B
:1035E0000000002001480068704700000000002033
:1035F000394810B4006810F00C0C384804BF10BCF7
:103600007047374BBCF1040F02BF184610BC70471F
:1036100047F6C071BCF1080F324A18D0BCF10C0F4C
:103620001CBF10BC7047D2F800C014680CF03F0CEF
:1036300014F4800F37D0B3FBFCF013680B4091FA01
:10364000A1F1B1FA81F123FA01F1484336E0D2F851
:1036500000C014680CF03F0C14F4800F0BD0B3FBC7
:10366000FCF013680B4091FAA1F1B1FA81F123FA51
:1036700001F148430AE0B0FBFCF013680B4091FAFB
:10368000A1F1B1FA81F123FA01F1484311684FF435
:10369000403292FAA2F201F44031B2FA82F2D14001
:1036A000491C490014E0B0FBFCF013680B4091FA90
:1036B000A1F1B1FA81F123FA01F1484311684FF009
:1036C000E04292FAA2F201F0E041B2FA82F2D14075
:1036D000B0FBF1F010BC7047083802400024F40041
:1036E00000127A00043802402DE9F84F04460078B1
:1036F000DFF8CC8310F0010F4FF00C0AA8F104059D
:1037000063D008F10400016801F00C01042912D013
:10371000016801F00C01082904D1D8F8001011F457
:10372000800F08D100683AEA00000DD1D8F80000F7
:1037300010F4800F08D0286810F4003F45D060686E
:10374000002800F0B98140E06068B0F5803F19D0F2
:10375000B0F5A02F28680CBF40F4802020F4803002
:10376000286028680CBF40F4803020F48020286056
:103770006068C0B1FEF786FC0646286810F4003F7A
:1037800005D022E0286840F480302860F0E7FEF79A
:1037900079FC801BB0F57A7F00F22D81286810F447
:1037A000003FF4D011E0FEF76DFC0646286810F4E7
:1037B000003F0AD0FEF766FC801BB0F57A7F00F26E
:1037C0001A81286810F4003FF4D12078BD4F10F022
:1037D000020F4FF0000956D0BB4801684FF0F80BBC
:1037E00011F00C0F1ED0016801F00C01082904BF74
:1037F000D8F8001011F4800F14D000683AEA0000E5
:1038000004BFD8F8000010F4800F0BD0E06838B384
:1038100001203860FEF736FC0646286810F0020FDB
:1038200009D011E0286810F0020F1CBFE0680128E1
:103830000AD000F041B9FEF725FC801B02287DD894
:10384000286810F0020FF6D028689BFAABF220F03F
:10385000F8012069B2FA82F290400843286012E031
:10386000C7F80090FEF70EFC0646286810F0020F1D
:1038700009D000BFFEF706FC801B02285ED828682E
:1038800010F0020FF6D1207810F0080F2ED08F48DC
:10389000DFF83CA26169A1B101210160FEF7F2FBF2
:1038A0000646DAF8000010F0020F1FD1FEF7EAFB1F
:1038B000801B022842D8DAF8000010F0020FF5D081
:1038C00014E0C0F80090FEF7DDFB0646DAF80000D1
:1038D00010F0020F0AD000BFFEF7D4FB801B0228B5
:1038E0002CD8DAF8000010F0020FF5D1207810F093
:1038F000040F67D07748016841F08051016000688B
:10390000DFF8D4A100F080500090DAF8000040F415
:103910008070CAF80000FEF7B5FB0646DAF8000032
:1039200010F4807F0CD100BFFEF7ACFB801B022897
:1039300061D8DAF8000010F4807F00E05BE0F3D09B
:10394000A068664E01281BD0052830680CBF40F0E7
:10395000040020F00100306030680CBF40F001002E
:1039600020F00400C6F80000A0684CF2503BB8B14B
:10397000FEF788FB8246306810F0020F05D021E088
:10398000306840F001003060EEE7FEF77BFBA0EB13
:103990000A0058452FD8306810F0020FF5D011E01A
:1039A000FEF770FB8246306810F0020F0AD000BFAD
:1039B000FEF768FBA0EB0A0058451CD8306810F0F1
:1039C000020FF5D1A069E0B33F49096801F00C018D
:1039D000082971D00228C7F860900FD0FEF752FB7B
:1039E0000446286810F0007F62D000BFFEF74AFB53
:1039F000001B022858D90320BDE8F88FFEF742FBD0
:103A00000646286810F0007F09D000BFFEF73AFB99
:103A1000801B0228EFD8286810F0007FF6D1D4E987
:103A2000070140EA010247F6C07191FAA1F1606A0C
:103A3000B1FA81F18840A16A4FF0FF3303EB5103E3
:103A400000E035E04FF4403191FAA1F1B1FA81F193
:103A500003FA01F1084310434FF0706292FAA2F2A8
:103A6000E16AB2FA82F2914008434FF0E04292FAE2
:103A7000A2F2216BB2FA82F291400843C8F800002A
:103A800001203866FEF7FEFA0446286810F0007F31
:103A90000ED100BFFEF7F6FA001B0228ABD828684B
:103AA00010F0007FF6D003E0286810F0007F9DD171
:103AB0000020BDE8F88FFFE70120BDE8F88F000087
:103AC000043802400000474208380240800E474256
:103AD00074380240403802400070004070380240A4
:103AE0000068503050F8210070470068503040F8AE
:103AF0002120704710B40068406820F0C00424F012
:103B00007F444FEA144CC4F3042381F803C004F04B
:103B10003F004B708870C4F342340C70C2B94FEA56
:103B20001C1202EB82020CF00F0C0CEB4202CA706A
:103B30001A0902EB820203F00F0303EB42024A7000
:103B4000020902EB820200F00F0000EB42008870D5
:103B500010BC00207047000030B403689B6A4B60C3
:103B600003681B69C3F30E038B6000680068174B82
:103B7000402500EA0304C4F3054CC4F3062381F88E
:103B800000C004F07F004B70887005EA1444CC70CC
:103B9000C2B94FEA1C1202EB82020CF00F0C0CEBC4
:103BA00042020A701A0902EB820203F00F0303EBD0
:103BB00042024A70020902EB820200F00F0000EBA1
:103BC0004200887030BC0020704700007F7F7F007B
:103BD000002804BF0120704770B5417F04460020D3
:103BE00019B92077204600F059F802206077216843
:103BF000CA2048622168532048622068C1684FF09B
:103C0000FF0611F0400F1BD14FF0FF31C160FEF7EE
:103C100039FA05462068C06810F0400F10D100BF87
:103C2000FEF730FA401BB0F57A7F206804D946626F
:103C300004206077012070BDC06810F0400FEFD005
:103C40002068816821F0400121F4E0018160206852
:103C5000816862681143D4E904231A4311438160E7
:103C60002168E068086120680169228941EA02410F
:103C700001612068C16821F08001C1602068016C89
:103C800021F4802101642068016CA2691143016460
:103C90002068466201206077002070BD0068A0F1B6
:103CA0008041B1F5205118BF7047012001490860DB
:103CB000704700003C0E47422DE9F0470446007F64
:103CC0000D46012804BF0220BDE8F0874FF001092E
:103CD00084F81C90022060776878DAB1A978EA78D5
:103CE000000241EA02412A7840EA423041EA0007F4
:103CF0002168CA2048622168532048622068C16850
:103D00004FF0FF0811F0400F4FF0040A4FF000068B
:103D10002FD117E010F0100F03D000F0EF000A30A1
:103D20006870E87800F0DFFB0604687800F0DBFBE1
:103D300046EA0026A87800F0D6FB2978304340EA0E
:103D40004137D5E74FF0FF31C160FEF79BF90546DB
:103D50002068C06810F0400F0BD100BFFEF792F949
:103D6000401BB0F57A7F25D82068C06810F0400F5E
:103D7000F4D0216827F0C00048602068C16821F0B5
:103D80008001C1602068816811F0200F20D1C168D6
:103D900021F0A001C160FEF775F905462068C068F2
:103DA00010F0200F14D100BFFEF76CF9401BB0F5E6
:103DB0007A7F08D92068C0F8248084F81DA026776F
:103DC0000120BDE8F0872068C06810F0200FEBD01C
:103DD0002068C0F8248084F81D9026770020BDE874
:103DE000F08700002DE9F05F0446007F0D460128B2
:103DF00004BF0220BDE8F09F4FF0010A84F81CA028
:103E00000220607720680026806800F0400072B1D0
:103E1000002808BFEE70A8782978EA7840EA0140C7
:103E20006978090241EA024140EA010812E00028EB
:103E300008BFEE70287800F056FB0704687800F0A1
:103E400052FB47EA0027A87800F04DFBE978384399
:103E500040EA01482168CA2048622168532048622C
:103E60002068C1684FF0FF0911F0400F4FF0040BBC
:103E700015D14FF0FF31C160FEF704F90746206805
:103E8000C06810F0400F0AD1FEF7FCF8C01BB0F577
:103E90007A7F31D82068C06810F0400FF4D02248F3
:103EA000216808EA000008602068816821F4802108
:103EB0008160D5E903010143206882681143816074
:103EC0002068C16821F08001C1602068816811F01C
:103ED000200F1FD1C16821F0A001C160FEF7D2F808
:103EE00005462068C06810F0200F13D1FEF7CAF80D
:103EF000401BB0F57A7F08D92068C0F8249084F878
:103F00001DB026770120BDE8F09F2068C06810F042
:103F1000200FEBD02068C0F8249084F81DA02677ED
:103F20000020BDE8F09F00007F7F7F004FF0E02180
:103F3000042808690CBF40F0040020F00400086168
:103F400070477047411EB1F1807F24BF0120704748
:103F50004FF0E0204161054AF02182F8141D002154
:103F60008161072101610020704700000FE000E03F
:103F700010B5FFF7E6FF10BD90F83820012A04BF06
:103F80000220704710B4012280F83820022380F804
:103F900039300368D3F804C02CF0700CC3F804C0A7
:103FA0000368D3F804C00C684CEA040CC3F804C0DE
:103FB0000368D3F808C02CF0800CC3F808C003686D
:103FC000D3F808C049684CEA0101996080F83920AB
:103FD000002180F8381010BC08467047026804239E
:103FE00003FA01F1136A8B431362136A19431162D6
:103FF00001684A6C42F400424A640068016841F07A
:104000000101016000207047022180F83910016829
:104010000A6842F001020A60012180F8391000208C
:104020007047002804BF0120704770B5044690F81F
:1040300039000D4628B9002084F83800204600F0E9
:1040400047F8022084F839002068816821F00701D0
:104050008160211D206800F0FFFA20688368826972
:10406000016AD5F800C022F00302AE694CEA0303EE
:1040700022F4407242EA0622D5F808C0EE694CEA02
:10408000020222F0FC0222F47C42D5F80CC042EA83
:1040900006224CEA0202D5F810C02E6A4FEA0C1C28
:1040A0004CEA063C4CEA0202D5F804C06D6921F0E6
:1040B000AA0141EA05114CEA01018360206882618E
:1040C00020680162012084F83900002070BD0000E2
:1040D00000B5006887B0A0F18041B1F500611CBF58
:1040E00007B000BD00210B48026842F004020260E4
:1040F000006800F004000590C02000900220CDE987
:104100000101CDE9031069460348FDF79BFE07B0A6
:1041100000BD000040380240000402400268C9B1FE
:104120000429116A1ED021F001011162116A41F0C7
:104130000101116201680A6A22F010020A620A6A29
:1041400042F010020A620068016841F0010101605A
:1041500000207047116A21F001011162116A41F0DB
:10416000010105E021F010011162116A41F0100116
:104170001162E8E700B5006885B0B0F1804F1CBF60
:1041800005B000BD0E20009002200190002002909A
:1041900003900120049069460248FDF753FE05B0E4
:1041A00000BD00000000024090F83830012B04BF31
:1041B000022070472DE9F001012480F838400223E5
:1041C00080F83930844BDFF814C242B1042A45D05C
:1041D000082A7DD00C2A00F0C28000F0F3B80268F3
:1041E000156A25F001051562156A56689769D1F8B8
:1041F000008027F0730748EA0707D1F8088025F008
:10420000020548EA05059A4218BF624511D1D1F866
:104210000CC025F008034CEA030323F00405D1F891
:1042200014C026F440734CEA0303D1F818C04CEADA
:104230000306566097614B68536315620268936981
:1042400043F0080393610268936923F004039361C8
:1042500002689369096943EA01013FE00268156A4F
:1042600025F010051562156A56689769D1F8008027
:1042700027F4E64747EA0827D1F8088025F020050B
:1042800045EA08159A4218BF624511D1D1F80CC011
:1042900025F0800343EA0C1323F04005D1F814C045
:1042A00026F4406343EA8C03D1F818C043EA8C0635
:1042B000566097614B68936315620268936943F493
:1042C000006393610268936923F48063936100E063
:1042D00006E002689369096943EA0121916171E08E
:1042E0000268156A25F480751562166A5568D769E3
:1042F000D1F8008027F0730748EA0707D1F8088053
:1043000026F4007646EA08269A4218BF624511D183
:10431000D1F80CC026F4006343EA0C2323F4806632
:10432000D1F814C025F4405343EA0C13D1F818C057
:1043300043EA0C155560D7614B68D3631662026877
:10434000D36943F00803D3610268D36923F00403FF
:10435000D3610268D369096943EA010131E0026867
:10436000156A25F480551562176A5568D669D1F823
:10437000008026F4E64646EA0826D1F8088027F4AD
:10438000005747EA08379A4218BF624505D1D1F86D
:1043900014C025F4804343EA8C155560D6614B6800
:1043A000136417620268D36943F40063D36102683F
:1043B000D36923F48063D3610268D369096943EA4E
:1043C0000121D16180F839404FF0000180F83810A8
:1043D000BDE8F001084670470000014000040140BC
:1043E000002804BF0120704710B5044690F839003A
:1043F00028B9002084F83800204600F00DF802208B
:1044000084F83900211D206800F026F9012084F885
:104410003900002010BD0000006881B0B0F1804F6D
:104420001CBF01B070470548016841F001010160FF
:10443000006800F00100009001B070474038024071
:104440000268012303FA01F1136A8B431362136AB2
:10445000194311620168A1F18042B2F580321CBF9C
:10446000A1F18042B2F5823203D14A6C42F400429B
:104470004A640068016841F0010101600020704752
:1044800010B54FF47F0008F09DFABDE810404DF6DE
:10449000AD61014803F072BA5800002010B5002247
:1044A0000849094800F05AFB0849074800F064FD34
:1044B0000749054800F003FABDE81040024800F043
:1044C0006FBD000014000020280500203C010020E2
:1044D00004000020FEE770470148FEF70DB8000019
:1044E0004C0F002070470021092810D94242CD23EB
:1044F00012FB03F2D312A3EBE2725242002A06DD52
:1045000011464A4202EB820200EB4200C0B20907A8
:1045100040EA11607047704710B5FDF7B9FDBDE87E
:104520001040FFF725BD0000F0B53348ABB00027C1
:10453000016841F080510160006800F080502990CE
:104540002E48016841F4404101600068012500F4F3
:1045500040402990052017904FF48030CDE9180590
:104560000426022480011F96CDE91D40B420CDE928
:104570002004092022900620239017A8FFF7B4F802
:1045800000B1FEE7FEF70AFC00B1FEE70F20249021
:104590000320CDE925074FF4A05027904FF4805019
:1045A0002890052124A8FEF751FF00B1FEE74FF443
:1045B00090700090C020CDE906600820CDE9080485
:1045C0000B9540011090C00415906846FEF742FC20
:1045D00000B1FEE7FFF706F84FF47A71B0FBF1F097
:1045E000FFF7B0FC0420FFF7A1FC00221146501E8B
:1045F000FDF7BCFD2BB0F0BD40380240007000401C
:104600000F48016841F4700101600E48016841F0F3
:10461000010101600C4A00211160026822F410229D
:1046200022F080720260031D084A1A60026822F4B8
:1046300080220260064801600649580608607047FB
:1046400088ED00E0003802400838024010300024B5
:104650000C38024008ED00E0F0B402682A4B2B4C05
:104660002B4D2C4EDFF8B0C0984218BFB0F1804FF0
:1046700007D0A04218BFA84203D0B04218BF60457F
:1046800004D14F6822F0700247EA0202984218BF34
:10469000B0F1804F25D0A04218BFA84221D0B0422F
:1046A00018BF60451DD0A0F18044B4F5A0341CBFF4
:1046B000A0F18044B4F5A23413D0A0F18044B4F545
:1046C000A4341CBFA0F18044B4F5C05409D0A0F1BB
:1046D0008044B4F5E0541CBFA0F18044B4F500540C
:1046E00003D1CC6822F44072224302608A68C2621D
:1046F0000A688262984212BF6045096901634FF0FF
:1047000001014161F0BC704700000140000400401D
:1047100000080040000C004000040140D0F81802DE
:10472000002804BF022070470021C0F81412084678
:10473000704770B50546D0F8184200F0E1FAC4F8A9
:104740000C02D5F81802002804BF022070BDD4F86E
:104750000402D5F81C12CA6804F5037190470020C2
:1047600070BD70B504460025812100F01FFA0121BB
:10477000204600F01BFA8221204600F017FAD4F8F8
:10478000180250B1D4F81C0240688047D4F81802CF
:1047900007F0B8FD0020C4F81802284670BD10B517
:1047A000D0E9864100291CBF94F80002FF2807D0F9
:1047B0008B6894F8012221469847FF2084F8000274
:1047C000002010BD0A2101800048704764000020CD
:1047D0004321018000487047B4000020432101803C
:1047E0000048704770000020432101800048704756
:1047F000F800002070B50546007C0026002830D067
:10480000402302228121284600F0D2FA40230222CE
:104810000121284600F0CCFA0823032282212846F1
:1048200000F0C6FA4FF4077008F03CF8C5F818021B
:10483000002808BF012612D00446D5F81C020068E3
:1048400080470020C4F81402C4F81802287CD4F869
:104850000422A8B140230121284600F0BCFA3046CA
:1048600070BD4FF4007302228121284600F0A0FAA7
:104870004FF4007302220121284600F099FACBE799
:104880004FF400730121284600F0A5FAE7E710B5C0
:10489000D0F81812002904BF022010BD027C002AA3
:1048A000D1F8042205D04023012100F094FA002021
:1048B00010BD4FF40073012100F08DFAF7E70246B6
:1048C000022000291CBF0020C2F81C127047D0F83B
:1048D0001802C0F8041200207047D0F81802C0F87F
:1048E0001022C0F8081200207047000070B505467D
:1048F000D0F8186208780C4610F0600125D0202905
:104900002BD1E288CAB110F0800F60780AD0D5F8B8
:104910001C128B6831469847E2883146284600F0E1
:104920006CF81AE086F80002A07986F80102E288A5
:104930003146284600F047F80FE0D5F81C126078A1
:1049400000228B682146984707E060780A2804D146
:1049500001220349284600F050F8002070BD0000F5
:104960006000002010B5D0F81812002904BF022002
:1049700010BDD1F81422002A1CBF012010BD012255
:10498000C1F81422B1F8102293B2D1F80822812183
:1049900000F0CEFA002010BD10B5D0F814225268F5
:1049A0009047002010BD134610B50A46002100F0C4
:1049B00012FA002010BD134610B50A46002100F07F
:1049C000B7FA002010BD10B50323C0F80821C0F8C5
:1049D000F431C0F80C2113460A46002100F0FBF91F
:1049E000002010BD10B505210023C0F8F4111A46AF
:1049F000194600F0F0F9002010BD10B502238261C5
:104A0000C0F8F431C26113460A46002100F090FA62
:104A1000002010BD10B504210023C0F8F4111A467F
:104A2000194600F085FA002010BD000010B50A46B6
:104A3000024903A000F05EF8004810BD48130020B2
:104A400043444320436F6E6669670000122008806C
:104A5000004870473800002010B50A46024903A0FC
:104A600000F048F8004810BD48130020434443209C
:104A7000496E7465726661636500000004200880F9
:104A8000004870473400002010B50A46024903A0D0
:104A900000F030F8004810BD48130020544642652D
:104AA000726E000010B50A46024903A000F022F819
:104AB000004810BD481300204576656E7443656E4E
:104AC0007465720010B50A46024903A000F012F89E
:104AD000004810BD481300203030303030303030C6
:104AE00030303141000000000C2008800048704741
:104AF0004C00002030B40025002804BF30BC7047B3
:104B0000034604784FF0000C44B100BF13F8014F86
:104B10000CF1010C0CF0FF0C002CF7D1022303EB7D
:104B20004C0313804B556A1C03238B540378AA1C37
:104B3000002B12BF002330BC704700BF10F801CB20
:104B400001F802C0521CD2B28B54521C90F800C023
:104B5000D2B2BCF1000FF1D130BC7047002804BFC5
:104B600002207047D0F81432002B1CBF0023C0F87D
:104B70001432002918BFC0F8101210B5012180F8B6
:104B8000FC11027000F0C0F8002010BD10B5002428
:104B9000D0F82002FDF7DDFB30B1012803D0022858
:104BA00008BF012400D00224204610BD10B5002407
:104BB000D0F82002FDF7AAFB30B1012803D002286B
:104BC00008BF012400D00224204610BD70B5134652
:104BD000044659B1D4F814024269002A4CD094F822
:104BE000FC01032804BF2046904745E0D4F8F411A7
:104BF000002504F11400022938D1D0E902218A42AB
:104C00000DD9511A81608AB219462046FFF7D3FEAA
:104C100000231A461946204600F0DDF826E04068D9
:104C2000B0FBF1F201FB12029AB9884211D3D4F819
:104C3000F81188420DD2002211462046FFF7BBFE34
:104C400000231A4619462046C4F8F85100F0C3F86C
:104C50000CE0D4F81402C16829B194F8FC010328CF
:104C600004BF204688472046FFF7BCFE94F80002A8
:104C7000012808BF84F80052002070BD70B51546A9
:104C8000044651B1D4F81402826952B394F8FC017D
:104C9000032804BF2046904723E0D4F8F41104F51C
:104CA000827003291DD1D0E902C39C450CD9ACEB1D
:104CB00003038360C068984298BF03469AB22946AE
:104CC0002046FFF770FE0CE0D4F81402016929B108
:104CD00094F8FC01032804BF204688472046FFF7CC
:104CE00099FE002070BD0020704710B5012180F8AA
:104CF000FC11D0F81422017952689047002010BDB1
:104D0000D0F82002FDF74CBB10B5017800292CD15A
:104D100017490222C1F8F803C0F820124FF0A04052
:104D20000860062048600020C1E90320C1E90502AF
:104D3000C861086201224862C1E90B200846FDF7FC
:104D40001BFF20B140F23B110AA001F087F880213F
:104D50000748FDF795FA402200210548FDF794FA2F
:104D6000802201210248FDF78FFA002010BD0000CB
:104D70004C0F00202E2E2F5372632F757362645FC9
:104D8000636F6E662E63000011F0800F01F07F01EB
:104D9000D0F82002C1EBC10100EB810014BF90F8F4
:104DA0003A0090F8FA0170470020704700207047E1
:104DB00010B59C4613460024D0F820026246FDF749
:104DC000F9FA30B1012803D0022808BF012400D02D
:104DD0000224204610BD10B50024D0F82002FDF7B3
:104DE00015FB30B1012803D0022808BF012400D0F0
:104DF0000224204610BD70B500220446402311460F
:104E0000FFF7D6FF40252B46002280212046C4F81C
:104E10001051FFF7CDFF0120256284F8FC01D4F882
:104E2000180228B1D4F8140221794268204690472C
:104E3000002070BD90F8FD1180F8FC110020704733
:104E400010B590F8FC11032905D1D0F81412C969E6
:104E5000002918BF8847002010BD0174002070474A
:104E600010B50024D0F82002FDF74FFF30B1012823
:104E700003D0022808BF012400D00224204610BD20
:104E800010B5044600F5027000F062F80120C4F885
:104E9000F401B4F80E02C4F8F80194F8080210F016
:104EA0001F010AD001290ED0022912D000F0800182
:104EB000204600F014F8002010BD04F502712046D1
:104EC00000F074F8F7E704F50271204600F057FA95
:104ED000F1E704F50271204600F0CCF9EBE710B5DC
:104EE0000024D0F82002FDF7B6FA30B1012803D033
:104EF000022808BF012400D00224204610BD10B5AE
:104F00000024D0F82002FDF719FF30B1012803D0AA
:104F1000022808BF012400D00224204610BD90F8CA
:104F2000FC1180F8FD11042180F8FC11002070476D
:104F300010B50024D0F82002FDF7BCFA30B10128EA
:104F400003D0022808BF012400D00224204610BD4F
:104F50000A7802704A7842708A78CB7802EB032292
:104F600042800A794B7902EB032282808A79C979DF
:104F700002EB0121C180704702460020002914BFC6
:104F8000C2F814120220704710B5D0F8142202247F
:104F900022B112689047002808BF0024204610BDA7
:104FA00010B5FFF7ACFF002010BD0000F8B50D46AE
:104FB000497800260A2980F00F81DFE801F0F5F436
:104FC000F3F2F39F05F3F1BD69880446080A062849
:104FD00070D007DC012812D0022818D0032828D06E
:104FE00000F0D4B8072870D00F2840F0CF80D4F854
:104FF0001012207CCA6969469047014670E0D4F8D7
:105000001012207C0A6869469047014668E0207CBF
:105010000028D4F8140205D0C16A684688470146C2
:1050200002205CE0816A6846884701460220487099
:1050300056E0C8B2062834D2DFE800F0030B131B99
:10504000232BD4F81012207C4A6869469047014609
:1050500046E0D4F81012207C8A68694690470146E1
:105060003EE0D4F81012207CCA6869469047014699
:1050700036E0D4F81012207C0A6969469047014650
:105080002EE0D4F81012207C4A6969469047014608
:1050900026E0D4F81012207C8A69694690470146C0
:1050A0001EE0D4F81402C9B26A46836B20469847C2
:1050B00008E0FFE7207C002868D1D4F81402416B97
:1050C0006846884701460BE0FFE7207C00285DD159
:1050D000D4F81402016B68468847014607204870DF
:1050E000BDF8000000281CBFEA88002A56D0824282
:1050F00088BF0246ADF8002020467BE00446A88821
:10510000002804BFE888002840D1A87800F07F0577
:1051100094F8FC01032839D084F8FE512946204632
:10512000FFF79EFE2046FFF775FC002D0CBF012007
:10513000022084F8FC0131E0A9784D4D0446012994
:10514000297023D894F8FC01022802D003280ED03D
:105150001CE041B10320616084F8FC012046FFF7A8
:1051600013FF022812D02046FFF754FC16E0E1B1ED
:1051700060688842F7D0C1B22046FFF70DFC29785D
:1051800020466160FFF700FF0228ECD18021204615
:10519000FFF7A5FE00212046FFF7A1FE3046F8BD2F
:1051A0000EE03DE018E04BE027E0022084F8FC012F
:1051B00020466160FFF7F0FB2046FFF72BFCEDE790
:1051C000E988012908D190F8FC1102290DD00329A2
:1051D00004BF0122011D0DD004468021FFF77FFE90
:1051E00000212046FFF77BFED8E7002181600122E5
:1051F00000F10801FFF701FCD0E790F8FC1102294B
:1052000018BF0329E8D14FF00101C160D0F80412A2
:1052100000291CBF0321C160022200F10C01E9E753
:105220000446688829460128B8D1C4F80402D4F895
:1052300014028268204690472046FFF7EBFBADE75B
:10524000044690F8FC012946022818BF03289DD186
:1052500048880128A2D10020C4F80402D4F814021E
:105260008268204690472046FFF7D4FB96E700006F
:105270007801002070B50D4604462878002609798B
:1052800000F06000202807D06878002848D0012866
:1052900028D0032808D051E0D4F8140229468268A7
:1052A00020469047002070BD94F8FC01022802D0EF
:1052B000032805D03AE0002918BF802943D13DE0FA
:1052C000688828B900291EBF80292046FFF707FEFD
:1052D000D4F8140229468268204690472046FFF7FA
:1052E00099FB2BE094F8FC01022802D0032805D09A
:1052F0001CE0002918BF802925D11FE06888E8B983
:1053000011F07F0F08D02046FFF740FCD4F81402BC
:1053100029468268204690472046FFF77BFB0DE038
:1053200094F8FC0102280BD0032810D080212046DD
:10533000FFF7D5FD00212046FFF7D1FD304670BDB7
:1053400011F07F0FFAD02046FFF7C9FDF6E701F014
:105350007F0011F0800F04EB001014BF00F1140562
:1053600000F582752046FFF70FFD002818BF0120C9
:105370000222286029462046FFF73FFBDEE770B592
:10538000044690F8FC010D4603280ED12879012827
:105390000BD8D4F81402826820469047E888002889
:1053A00004BF2046FFF736FB07E080212046FFF7C9
:1053B00096FD00212046FFF792FD002070BD000001
:1053C0004B78012291F800C002FA0CF2012BD0F8C0
:1053D0001C380CD043EA0242C0F81C280A7800EBC3
:1053E0004210D0F8002B12F4004F20D02CE092B2E3
:1053F0001A43C0F81C280A7800EB4210D0F8003994
:1054000013F4004F20D1D0F80039B1F808C0CCF324
:105410000A0C43EA0C03C978890441EA8251194312
:1054200041F4004141F08051C0F800190CE0D0F87F
:10543000002B0B89C3F30A031A43C978034B43EAD1
:1054400081411143C0F8001B00207047008000100C
:10545000D0F800196FF30A01C0F80019D0F8081845
:1054600001F00601042905D1D0F8001941F003012B
:10547000C0F80019D0F8041841F48071C0F804187D
:10548000002070472D49DDF800C0029B099A012BCE
:1054900005D0C26842F04002C26001232DE0836B58
:1054A00023F480338363C36823F0400323F484032D
:1054B000C360C36823F44013C360012A03D1C268E8
:1054C00042F48012C260012202E0521C8A4228D8B3
:1054D000036913F0004FF8D0026942F00102026143
:1054E000012202E0521C8A421BD8036913F0010F0B
:1054F00017D0F7E75B1C8B4210D8026912F0004FFF
:10550000F8D0026942F001020261012302E05B1C53
:105510008B4203D8026912F0010FF8D14FF48031A9
:105520008163BCF1010F07D1816841F00601816000
:10553000816841F02001816000207047400D030028
:1055400070B44E7801254FF0006CAC07364B0A78EA
:1055500000EB4212012E14D0D2F8006B26F4004664
:10556000C2F8006B0A7800EB4212C2F800CB0A784E
:1055700000EB4212C2F8004B01240A7800EB421CF7
:105580003BE0D2F8006926F40046C2F800690A78C8
:1055900000EB4212C2F800C90A7800EB4212C2F8CE
:1055A0000049012291F800C000EB4C1C02E0521CA3
:1055B0009A421FD8DCF8084914F0804FF7D14FF415
:1055C000846202614FF0010C04E000BF0CF1010C99
:1055D0009C4503D8026912F0200FF7D1D0F81C289F
:1055E000097805FA01F189B222EA010117E0641C89
:1055F0009C4202D9032070BC7047DCF8082B12F0E3
:10560000100FF4D1D0F8042842F48062C0F80428C6
:10561000D0F81C28097805FA01F122EA0141C0F806
:105620001C18002070BC7047400D030010B5D0F866
:10563000041821F00201C0F804180320FCF7E6FB6F
:10564000002010BD10B5D0F8041841F00201C0F8D8
:1056500004180320FCF7DAFB002010BD2DE9F0034D
:10566000DDE908270D9E069DD0F838C04CF4001CDB
:10567000C0F838C08EB9D0F838C02CF4001CC0F87F
:1056800038C0D0F800C04CF0400CC0F800C0D0F8D2
:1056900000C04CF0800CC0F800C04FF0000CC0F807
:1056A00000CED0F80048C0F80048012A0CD0D0F84D
:1056B000002842F00302C0F8002800BF4FF48462C3
:1056C00002610122444C0BE0002BD0F8002818BFE7
:1056D00042F00102C0F80028F0E7521CA24203D8B1
:1056E000036913F0200FF8D110220261012202E0B9
:1056F000521CA24203D8036913F0100FF8D1C0F86E
:1057000010C8C0F814C84FF0FF32C0F81828C0F80D
:105710001CC800224FF090444FF0FF08002911D917
:1057200000EB4213D3F8009919F0004F14BFC3F8EF
:105730000049C3F800C9C3F810C9C3F80889521C4E
:105740009142EDD80022002912D900BF00EB42138C
:10575000D3F8009B19F0004F14BFC3F8004BC3F8F7
:1057600000CBC3F810CBC3F8088B521C9142EDD884
:10577000D0F8101821F48071C0F81018012D0CD148
:105780001649C0F83018D0F8301841F0030141F440
:105790008031C0F83018D0F83018C0F818C06FF059
:1057A000804141611DB9816941F0100181618169C8
:1057B0000B4A114381611FB1816941F00801816188
:1057C000012E05D1816941F0040141F080418161E0
:1057D0000020BDE8F0037047400D03000001800089
:1057E00000383C80816821F0010181600020704711
:1057F00010B491F801C00B7800EB4313BCF1010F1A
:105800002BD0D3F810CB6FF3120CC3F810CB0B785E
:1058100000EB4313D3F810CB6FF3DC4CC3F810CB81
:105820004B69002B1CBF8B684B610B7800EB43135B
:10583000D3F810CB4CF4002CC3F810CB0B7800EB52
:105840004313D3F810CB8C68C4F312044CEA040C55
:10585000C3F810CB012A6AD163E0D1F814C0BCF1BF
:10586000000FD3F810C940D06FF3120CC3F810C961
:105870000B7800EB4313D3F810C96FF3DC4CC3F87B
:1058800010C9D1F814C08B689C4598BF63464B6122
:105890000B7800EB4313D3F810C94CF4002CC3F879
:1058A00010C90B7800EB4313D3F810C94C69C4F34B
:1058B00012044CEA040C00BFC3F810C90B7800EBCB
:1058C0004313D3F800C94CF0044CC3F800C9012AB3
:1058D00020D04A6922B3D0F834280978012303FA8A
:1058E00001F11143C0F834182AE06FF3DC4CC3F81F
:1058F00010C90B7800EB4313D3F810C94CF4002CFB
:10590000C3F810C90B7800EB4313D3F810C96FF339
:10591000120CD1E70A69097800EB4110C0F814298C
:105920000EE00B7800EB4313CA68C3F8142B097818
:1059300000EB4110D0F8001B41F00441C0F8001BFF
:10594000002010BC70470023C0F8103BD0F8103B7B
:1059500043F40023C0F8103BD0F8103B43F0180389
:10596000C0F8103BD0F8103B43F0C043C0F8103BE8
:10597000012905D1C0F8142B4FF08021C0F8001B7D
:10598000002070474B780A7800EB4212012B0BD0B5
:10599000D2F8003B23F40013C2F8003BCA78032A74
:1059A00018BF022A15D01DE0D2F8003923F40013E5
:1059B000C2F80039CA78032A18BF022A12D109781E
:1059C00000EB4110D0F8001941F08051C0F80019E7
:1059D00008E0097800EB4110D0F8001B41F080513D
:1059E000C0F8001B4FF0000070474B780A7800EBBE
:1059F0004212012B05D0D2F8003B13F0004F15D016
:105A00001AE0D2F8003913F0004F05D1D2F800396E
:105A100023F08043C2F80039097800EB4110D0F838
:105A2000001941F40011C0F800190EE0D2F8003B53
:105A300023F08043C2F8003B097800EB4110D0F816
:105A4000001B41F40011C0F8001B0020704700004B
:105A500030B44C786FF0604C0B7800EB4313012CA2
:105A600032D0D3F8104B6FF31204C3F8104B0B78FD
:105A700000EB4313D3F8104B6FF3DC44C3F8104B27
:105A80004B69002B7ED08C6823445B1EB3FBF4F380
:105A90009BB20C7800EB4414D4F8105B0CEAC34CB6
:105AA00045EA0C0CC4F810CB91F800C000EB4C1C7C
:105AB000DCF8104B8D686B43C3F312032343CCF81F
:105AC000103B012A7ED1D7E04C697CB3D3F8104952
:105AD0006FF31204C3F810490B7800EB4313D3F8AB
